{
  "_format": "hh-sol-artifact-1",
  "contractName": "Swap",
  "sourceName": "contracts/Swap.sol",
  "abi": [
    {
      "inputs": [
        {
          "internalType": "contract MyTokenA",
          "name": "tA",
          "type": "address"
        },
        {
          "internalType": "contract MyTokenB",
          "name": "tB",
          "type": "address"
        }
      ],
      "stateMutability": "nonpayable",
      "type": "constructor"
    },
    {
      "inputs": [],
      "name": "getK",
      "outputs": [
        {
          "internalType": "uint256",
          "name": "",
          "type": "uint256"
        }
      ],
      "stateMutability": "view",
      "type": "function"
    },
    {
      "inputs": [
        {
          "internalType": "uint256",
          "name": "amount",
          "type": "uint256"
        }
      ],
      "name": "perviewSwapAtoB",
      "outputs": [
        {
          "internalType": "uint256",
          "name": "",
          "type": "uint256"
        }
      ],
      "stateMutability": "view",
      "type": "function"
    },
    {
      "inputs": [
        {
          "internalType": "uint256",
          "name": "amount",
          "type": "uint256"
        }
      ],
      "name": "perviewSwapBtoA",
      "outputs": [
        {
          "internalType": "uint256",
          "name": "",
          "type": "uint256"
        }
      ],
      "stateMutability": "view",
      "type": "function"
    },
    {
      "inputs": [
        {
          "internalType": "uint256",
          "name": "_amountA",
          "type": "uint256"
        },
        {
          "internalType": "uint256",
          "name": "_amountB",
          "type": "uint256"
        }
      ],
      "name": "startCreatePool",
      "outputs": [],
      "stateMutability": "nonpayable",
      "type": "function"
    },
    {
      "inputs": [
        {
          "internalType": "uint256",
          "name": "amount",
          "type": "uint256"
        }
      ],
      "name": "swapAtoB",
      "outputs": [],
      "stateMutability": "nonpayable",
      "type": "function"
    },
    {
      "inputs": [
        {
          "internalType": "uint256",
          "name": "amount",
          "type": "uint256"
        }
      ],
      "name": "swapBtoA",
      "outputs": [],
      "stateMutability": "nonpayable",
      "type": "function"
    }
  ],
  "bytecode": "0x60806040523480156200001157600080fd5b506040516200188538038062001885833981810160405281019062000037919062000183565b816000806101000a81548173ffffffffffffffffffffffffffffffffffffffff021916908373ffffffffffffffffffffffffffffffffffffffff16021790555080600160006101000a81548173ffffffffffffffffffffffffffffffffffffffff021916908373ffffffffffffffffffffffffffffffffffffffff1602179055505050620001ca565b600080fd5b600073ffffffffffffffffffffffffffffffffffffffff82169050919050565b6000620000f282620000c5565b9050919050565b60006200010682620000e5565b9050919050565b6200011881620000f9565b81146200012457600080fd5b50565b60008151905062000138816200010d565b92915050565b60006200014b82620000e5565b9050919050565b6200015d816200013e565b81146200016957600080fd5b50565b6000815190506200017d8162000152565b92915050565b600080604083850312156200019d576200019c620000c0565b5b6000620001ad8582860162000127565b9250506020620001c0858286016200016c565b9150509250929050565b6116ab80620001da6000396000f3fe608060405234801561001057600080fd5b50600436106100625760003560e01c80635c8d483514610067578063a09524af14610097578063da0d6735146100b3578063e0441df0146100cf578063e7226de4146100eb578063ee39e7a01461011b575b600080fd5b610081600480360381019061007c9190610fc8565b610139565b60405161008e9190611004565b60405180910390f35b6100b160048036038101906100ac919061101f565b61017b565b005b6100cd60048036038101906100c89190610fc8565b6106e9565b005b6100e960048036038101906100e49190610fc8565b610b14565b005b61010560048036038101906101009190610fc8565b610f41565b6040516101129190611004565b60405180910390f35b610123610f83565b6040516101309190611004565b60405180910390f35b6000808260025461014a919061108e565b905060008160045461015c91906110f1565b905060008160035461016e9190611122565b9050809350505050919050565b6000600254146101c0576040517f08c379a00000000000000000000000000000000000000000000000000000000081526004016101b7906111b3565b60405180910390fd5b600060035414610205576040517f08c379a00000000000000000000000000000000000000000000000000000000081526004016101fc9061121f565b60405180910390fd5b8160008054906101000a900473ffffffffffffffffffffffffffffffffffffffff1673ffffffffffffffffffffffffffffffffffffffff166370a08231336040518263ffffffff1660e01b815260040161025f9190611280565b602060405180830381865afa15801561027c573d6000803e3d6000fd5b505050506040513d601f19601f820116820180604052508101906102a091906112b0565b10156102e1576040517f08c379a00000000000000000000000000000000000000000000000000000000081526004016102d890611329565b60405180910390fd5b80600160009054906101000a900473ffffffffffffffffffffffffffffffffffffffff1673ffffffffffffffffffffffffffffffffffffffff166370a08231336040518263ffffffff1660e01b815260040161033d9190611280565b602060405180830381865afa15801561035a573d6000803e3d6000fd5b505050506040513d601f19601f8201168201806040525081019061037e91906112b0565b10156103bf576040517f08c379a00000000000000000000000000000000000000000000000000000000081526004016103b690611395565b60405180910390fd5b8160008054906101000a900473ffffffffffffffffffffffffffffffffffffffff1673ffffffffffffffffffffffffffffffffffffffff1663dd62ed3e33306040518363ffffffff1660e01b815260040161041b9291906113b5565b602060405180830381865afa158015610438573d6000803e3d6000fd5b505050506040513d601f19601f8201168201806040525081019061045c91906112b0565b101561049d576040517f08c379a000000000000000000000000000000000000000000000000000000000815260040161049490611450565b60405180910390fd5b80600160009054906101000a900473ffffffffffffffffffffffffffffffffffffffff1673ffffffffffffffffffffffffffffffffffffffff1663dd62ed3e33306040518363ffffffff1660e01b81526004016104fb9291906113b5565b602060405180830381865afa158015610518573d6000803e3d6000fd5b505050506040513d601f19601f8201168201806040525081019061053c91906112b0565b101561057d576040517f08c379a0000000000000000000000000000000000000000000000000000000008152600401610574906114e2565b60405180910390fd5b60008054906101000a900473ffffffffffffffffffffffffffffffffffffffff1673ffffffffffffffffffffffffffffffffffffffff166323b872dd3330856040518463ffffffff1660e01b81526004016105da93929190611502565b6020604051808303816000875af11580156105f9573d6000803e3d6000fd5b505050506040513d601f19601f8201168201806040525081019061061d9190611571565b50600160009054906101000a900473ffffffffffffffffffffffffffffffffffffffff1673ffffffffffffffffffffffffffffffffffffffff166323b872dd3330846040518463ffffffff1660e01b815260040161067d93929190611502565b6020604051808303816000875af115801561069c573d6000803e3d6000fd5b505050506040513d601f19601f820116820180604052508101906106c09190611571565b5081600281905550806003819055506003546002546106df919061159e565b6004819055505050565b6000811161072c576040517f08c379a00000000000000000000000000000000000000000000000000000000081526004016107239061162c565b60405180910390fd5b8060008054906101000a900473ffffffffffffffffffffffffffffffffffffffff1673ffffffffffffffffffffffffffffffffffffffff166370a08231336040518263ffffffff1660e01b81526004016107869190611280565b602060405180830381865afa1580156107a3573d6000803e3d6000fd5b505050506040513d601f19601f820116820180604052508101906107c791906112b0565b1015610808576040517f08c379a00000000000000000000000000000000000000000000000000000000081526004016107ff90611329565b60405180910390fd5b8060008054906101000a900473ffffffffffffffffffffffffffffffffffffffff1673ffffffffffffffffffffffffffffffffffffffff1663dd62ed3e33306040518363ffffffff1660e01b81526004016108649291906113b5565b602060405180830381865afa158015610881573d6000803e3d6000fd5b505050506040513d601f19601f820116820180604052508101906108a591906112b0565b10156108e6576040517f08c379a00000000000000000000000000000000000000000000000000000000081526004016108dd90611450565b60405180910390fd5b60008054906101000a900473ffffffffffffffffffffffffffffffffffffffff1673ffffffffffffffffffffffffffffffffffffffff166323b872dd3330846040518463ffffffff1660e01b815260040161094393929190611502565b6020604051808303816000875af1158015610962573d6000803e3d6000fd5b505050506040513d601f19601f820116820180604052508101906109869190611571565b508060026000828254610999919061108e565b9250508190555060006002546004546109b291906110f1565b90506000816003546109c49190611122565b9050600160009054906101000a900473ffffffffffffffffffffffffffffffffffffffff1673ffffffffffffffffffffffffffffffffffffffff1663095ea7b333836040518363ffffffff1660e01b8152600401610a2392919061164c565b6020604051808303816000875af1158015610a42573d6000803e3d6000fd5b505050506040513d601f19601f82011682018060405250810190610a669190611571565b50600160009054906101000a900473ffffffffffffffffffffffffffffffffffffffff1673ffffffffffffffffffffffffffffffffffffffff1663a9059cbb33836040518363ffffffff1660e01b8152600401610ac492919061164c565b6020604051808303816000875af1158015610ae3573d6000803e3d6000fd5b505050506040513d601f19601f82011682018060405250810190610b079190611571565b5081600381905550505050565b60008111610b57576040517f08c379a0000000000000000000000000000000000000000000000000000000008152600401610b4e9061162c565b60405180910390fd5b80600160009054906101000a900473ffffffffffffffffffffffffffffffffffffffff1673ffffffffffffffffffffffffffffffffffffffff166370a08231336040518263ffffffff1660e01b8152600401610bb39190611280565b602060405180830381865afa158015610bd0573d6000803e3d6000fd5b505050506040513d601f19601f82011682018060405250810190610bf491906112b0565b1015610c35576040517f08c379a0000000000000000000000000000000000000000000000000000000008152600401610c2c90611395565b60405180910390fd5b80600160009054906101000a900473ffffffffffffffffffffffffffffffffffffffff1673ffffffffffffffffffffffffffffffffffffffff1663dd62ed3e33306040518363ffffffff1660e01b8152600401610c939291906113b5565b602060405180830381865afa158015610cb0573d6000803e3d6000fd5b505050506040513d601f19601f82011682018060405250810190610cd491906112b0565b1015610d15576040517f08c379a0000000000000000000000000000000000000000000000000000000008152600401610d0c906114e2565b60405180910390fd5b600160009054906101000a900473ffffffffffffffffffffffffffffffffffffffff1673ffffffffffffffffffffffffffffffffffffffff166323b872dd3330846040518463ffffffff1660e01b8152600401610d7493929190611502565b6020604051808303816000875af1158015610d93573d6000803e3d6000fd5b505050506040513d601f19601f82011682018060405250810190610db79190611571565b508060036000828254610dca919061108e565b925050819055506000600354600454610de391906110f1565b9050600081600254610df59190611122565b905060008054906101000a900473ffffffffffffffffffffffffffffffffffffffff1673ffffffffffffffffffffffffffffffffffffffff1663095ea7b333836040518363ffffffff1660e01b8152600401610e5292919061164c565b6020604051808303816000875af1158015610e71573d6000803e3d6000fd5b505050506040513d601f19601f82011682018060405250810190610e959190611571565b5060008054906101000a900473ffffffffffffffffffffffffffffffffffffffff1673ffffffffffffffffffffffffffffffffffffffff1663a9059cbb33836040518363ffffffff1660e01b8152600401610ef192919061164c565b6020604051808303816000875af1158015610f10573d6000803e3d6000fd5b505050506040513d601f19601f82011682018060405250810190610f349190611571565b5081600281905550505050565b60008082600354610f52919061108e565b9050600081600454610f6491906110f1565b9050600081600254610f769190611122565b9050809350505050919050565b6000600454905090565b600080fd5b6000819050919050565b610fa581610f92565b8114610fb057600080fd5b50565b600081359050610fc281610f9c565b92915050565b600060208284031215610fde57610fdd610f8d565b5b6000610fec84828501610fb3565b91505092915050565b610ffe81610f92565b82525050565b60006020820190506110196000830184610ff5565b92915050565b6000806040838503121561103657611035610f8d565b5b600061104485828601610fb3565b925050602061105585828601610fb3565b9150509250929050565b7f4e487b7100000000000000000000000000000000000000000000000000000000600052601160045260246000fd5b600061109982610f92565b91506110a483610f92565b92508282019050808211156110bc576110bb61105f565b5b92915050565b7f4e487b7100000000000000000000000000000000000000000000000000000000600052601260045260246000fd5b60006110fc82610f92565b915061110783610f92565b925082611117576111166110c2565b5b828204905092915050565b600061112d82610f92565b915061113883610f92565b92508282039050818111156111505761114f61105f565b5b92915050565b600082825260208201905092915050565b7f73746172742077697468207a65726f20416d6f756e7420746f6b656e41000000600082015250565b600061119d601d83611156565b91506111a882611167565b602082019050919050565b600060208201905081810360008301526111cc81611190565b9050919050565b7f73746172742077697468207a65726f20416d6f756e7420746f6b656e42000000600082015250565b6000611209601d83611156565b9150611214826111d3565b602082019050919050565b60006020820190508181036000830152611238816111fc565b9050919050565b600073ffffffffffffffffffffffffffffffffffffffff82169050919050565b600061126a8261123f565b9050919050565b61127a8161125f565b82525050565b60006020820190506112956000830184611271565b92915050565b6000815190506112aa81610f9c565b92915050565b6000602082840312156112c6576112c5610f8d565b5b60006112d48482850161129b565b91505092915050565b7f496e73756666696369656e742062616c616e6365206f6620746f6b656e204100600082015250565b6000611313601f83611156565b915061131e826112dd565b602082019050919050565b6000602082019050818103600083015261134281611306565b9050919050565b7f496e73756666696369656e742062616c616e6365206f6620746f6b656e204200600082015250565b600061137f601f83611156565b915061138a82611349565b602082019050919050565b600060208201905081810360008301526113ae81611372565b9050919050565b60006040820190506113ca6000830185611271565b6113d76020830184611271565b9392505050565b7f496e73756666696369656e7420616c6c6f77616e6365206f6620746f6b656e2060008201527f4100000000000000000000000000000000000000000000000000000000000000602082015250565b600061143a602183611156565b9150611445826113de565b604082019050919050565b600060208201905081810360008301526114698161142d565b9050919050565b7f496e73756666696369656e7420616c6c6f77616e6365206f6620746f6b656e2060008201527f4200000000000000000000000000000000000000000000000000000000000000602082015250565b60006114cc602183611156565b91506114d782611470565b604082019050919050565b600060208201905081810360008301526114fb816114bf565b9050919050565b60006060820190506115176000830186611271565b6115246020830185611271565b6115316040830184610ff5565b949350505050565b60008115159050919050565b61154e81611539565b811461155957600080fd5b50565b60008151905061156b81611545565b92915050565b60006020828403121561158757611586610f8d565b5b60006115958482850161155c565b91505092915050565b60006115a982610f92565b91506115b483610f92565b92508282026115c281610f92565b915082820484148315176115d9576115d861105f565b5b5092915050565b7f416d6f756e74206d7573742062652067726561746572207468616e207a65726f600082015250565b6000611616602083611156565b9150611621826115e0565b602082019050919050565b6000602082019050818103600083015261164581611609565b9050919050565b60006040820190506116616000830185611271565b61166e6020830184610ff5565b939250505056fea2646970667358221220ddad0c9f2c1241c6a2385d91bf267d7abcdc1c34aa569c6fa06fe4a5ed953a6964736f6c63430008140033",
  "linkReferences": {},
  "deployedLinkReferences": {}
}